:020000040000FA
:100000000C9462000C948A000C948A000C948A0070
:100010000C948A000C948A000C948A000C948A0038
:100020000C948A000C948A000C948A000C948A0028
:100030000C948A000C948A000C948A000C948A0018
:100040000C94D8020C948A000C9448030C9422035C
:100050000C948A000C948A000C948A000C948A00F8
:100060000C948A000C948A000000000024002700F1
:100070002A0000000000250028002B0000000000DE
:1000800023002600290004040404040404040202DA
:100090000202020203030303030301020408102007
:1000A0004080010204081020010204081020000012
:1000B0000008000201000003040700000000000027
:1000C0000000EC0411241FBECFEFD8E0DEBFCDBF8F
:1000D00011E0A0E0B1E0E2E9FAE002C005900D9283
:1000E000AE34B107D9F721E0AEE4B1E001C01D9212
:1000F000A53FB207E1F710E0C2E6D0E004C02197C7
:10010000FE010E944105C136D107C9F70E947A035A
:100110000C9447050C940000833081F028F4813062
:1001200099F08230A9F008958730A9F08830C9F09D
:100130008430B1F4809180008F7D03C08091800075
:100140008F7780938000089584B58F7784BD08955C
:1001500084B58F7DFBCF8091B0008F778093B00006
:1001600008958091B0008F7DF9CFCF93DF93282F32
:1001700030E0F901E255FF4F8491F901E656FF4F57
:10018000D491F901EA57FF4FC491CC23A1F081111A
:100190000E948C00EC2FF0E0EE0FFF1FE458FF4FA1
:1001A000A591B491EC91ED2381E090E009F480E019
:1001B000DF91CF91089580E090E0FACF1F93CF9325
:1001C000DF93282F30E0F901E255FF4F8491F901C8
:1001D000E656FF4FD491F901EA57FF4FC491CC2363
:1001E000A9F0162F81110E948C00EC2FF0E0EE0F89
:1001F000FF1FEE58FF4FA591B4918FB7F894EC9183
:10020000111108C0D095DE23DC938FBFDF91CF9111
:100210001F910895DE2BF8CFCF93DF9390E0FC0180
:10022000E656FF4F24918A579F4FFC018491882303
:10023000D1F090E0880F991FFC01E859FF4FA5917C
:10024000B491FC01EE58FF4FC591D491623071F426
:100250009FB7F8943C91822F809583238C93E881FB
:100260002E2B28839FBFDF91CF9108958FB7F894ED
:10027000EC912E2B2C938FBFF6CF3FB7F894809143
:10028000F1019091F201A091F301B091F40126B532
:10029000A89B05C02F3F19F00196A11DB11D3FBFBE
:1002A000BA2FA92F982F8827BC01CD01620F711D8D
:1002B000811D911D42E0660F771F881F991F4A9587
:1002C000D1F708958F929F92AF92BF92CF92DF9213
:1002D000EF92FF924B015C010E943D016B017C019A
:1002E0000E943D016C197D098E099F09683E73408B
:1002F00081059105A8F321E0821A9108A108B108AF
:1003000088EEC80E83E0D81EE11CF11C8114910414
:10031000A104B10429F7FF90EF90DF90CF90BF9038
:10032000AF909F908F900895AF92BF92CF92DF923F
:10033000EF92FF920F931F93CF93DF936C017B019A
:100340008B01040F151FEB015E01AE18BF08C0172B
:10035000D10759F06991D601ED91FC910190F0819E
:10036000E02DC6010995892B79F7C501DF91CF9161
:100370001F910F91FF90EF90DF90CF90BF90AF90C3
:100380000895FC01538D448D252F30E0842F90E09B
:10039000821B930B541710F0CF9608950197089580
:1003A000FC01918D828D981761F0A28DAE0FBF2F49
:1003B000B11D5D968C91928D9F5F9F73928F90E09F
:1003C00008958FEF9FEF0895FC01918D828D98170E
:1003D00031F0828DE80FF11D858D90E008958FEF4B
:1003E0009FEF0895FC01918D228D892F90E0805C14
:1003F0009F4F821B91098F73992708958EE491E096
:100400000E94F20121E0892B09F420E0822F089557
:1004100080E090E0892B29F00E94FE0181110C946C
:1004200000000895FC01A48DA80FB92FB11DA35A97
:10043000BF4F2C91848D90E001968F739927848F04
:10044000A689B7892C93A089B1898C918370806427
:100450008C93938D848D981306C00288F389E02DC8
:1004600080818F7D80830895EF92FF920F931F9379
:10047000CF93DF93EC0181E0888F9B8D8C8D981357
:100480001AC0E889F989808185FF15C09FB7F89463
:10049000EE89FF896083E889F989808183708064AF
:1004A00080839FBF81E090E0DF91CF911F910F91FA
:1004B000FF90EF900895F62E0B8D10E00F5F1F4F09
:1004C0000F731127E02E8C8D8E110CC00FB607FC18
:1004D000FACFE889F989808185FFF5CFCE010E94A6
:1004E0001202F1CFEB8DEC0FFD2FF11DE35AFF4F00
:1004F000F0829FB7F8940B8FEA89FB898081806234
:10050000CFCFCF93DF93EC01888D8823B9F0AA89F0
:10051000BB89E889F9898C9185FD03C0808186FDBE
:100520000DC00FB607FCF7CF8C9185FFF2CF80810D
:1005300085FFEDCFCE010E941202E9CFDF91CF916E
:100540000895CF93DF93D82FC8E06D2F661F6627DD
:10055000661F8EE00E94DE00DD0F61E080E10E94F8
:10056000DE0060E080E10E94DE00C15071F7DF91A3
:10057000CF910895CF93DF936AE070E00E94190550
:100580006E5F7E4FFB01C081FC01EE5FFE4FD081AC
:1005900060E08FE00E94DE008D2F0E94A1028C2F70
:1005A0000E94A10261E08FE0DF91CF910C94DE0008
:1005B0001F920F920FB60F9211242F933F938F9398
:1005C0009F93AF93BF938091ED019091EE01A09125
:1005D000EF01B091F0013091EC0123E0230F2D37B2
:1005E00058F50196A11DB11D2093EC018093ED01FA
:1005F0009093EE01A093EF01B093F0018091F1018F
:100600009091F201A091F301B091F4010196A11D26
:10061000B11D8093F1019093F201A093F301B09387
:10062000F401BF91AF919F918F913F912F910F90C6
:100630000FBE0F901F90189526E8230F0296A11D5C
:10064000B11DD2CF1F920F920FB60F9211242F938C
:100650003F934F935F936F937F938F939F93AF934A
:10066000BF93EF93FF938EE491E00E941202FF91FB
:10067000EF91BF91AF919F918F917F916F915F911A
:100680004F913F912F910F900FBE0F901F90189593
:100690001F920F920FB60F9211242F938F939F9357
:1006A000EF93FF93E0915E01F0915F018081E09113
:1006B0006401F091650182FD1BC09081809167010A
:1006C0008F5F8F7320916801821741F0E09167017D
:1006D000F0E0E25BFE4F958F80936701FF91EF9111
:1006E0009F918F912F910F900FBE0F901F90189593
:1006F0008081F4CF789484B5826084BD84B58160B4
:1007000084BD85B5826085BD85B5816085BD8091DC
:100710006E00816080936E00109281008091810054
:10072000826080938100809181008160809381004C
:10073000809180008160809380008091B10084600E
:100740008093B1008091B00081608093B00080916F
:100750007A00846080937A0080917A00826080932E
:100760007A0080917A00816080937A0080917A008B
:10077000806880937A001092C10061E08EE00E9450
:100780000C0161E080E10E940C0161E08FE00E94B9
:100790000C0162E082E00E940C0162E083E00E94B2
:1007A0000C0162E084E00E940C0162E085E00E949E
:1007B0000C0162E086E00E940C0161E087E00E948B
:1007C0000C01E0915E01F0915F0182E08083E09195
:1007D0005A01F0915B011082E0915C01F0915D01A2
:1007E0008FEC808310926601E0916201F0916301C9
:1007F00086E08083E0916001F091610180818061F9
:100800008083E0916001F091610180818860808344
:10081000E0916001F0916101808180688083E091C6
:100820006001F091610180818F7D8083FF24F394CA
:1008300000E010E080910001909101010E94BA0255
:1008400068EE73E080E090E00E94620182E00E9426
:10085000B500019709F076C084E00E94B500892BAD
:1008600071F58091EB018F258093EB01882309F4CA
:1008700062C061E087E00E94DE006EE171E0FB0192
:1008800001900020E9F73197AF01461B570B8EE42A
:1008900091E00E94940142E050E06BE471E08EE44C
:1008A00091E00E94940180910001909101010E94C9
:1008B000BA0264EF71E080E090E00E94620185E09E
:1008C0000E94B500892BC1F48091EB018823A1F02F
:1008D0008091000190910101833691056CF401969D
:1008E00090930101809300010E94BA0268EC70E0CD
:1008F00080E090E00E94620186E00E94B500892BB2
:1009000009F0A4CF8091EB01882309F49FCF809157
:10091000000190910101181619060CF097CF01976C
:1009200090930101809300010E94BA0268EC70E08C
:1009300080E090E089CF60E087E00E94DE0064E321
:1009400071E09DCFC0910001D0910101D7FD38C069
:10095000CE010E94BA0268EE73E080E090E00E944F
:100960006201CA30D10594F483E00E94B500892B5E
:1009700069F48AE090E00E94BA0264E670E080E0E8
:1009800090E00E946201CAE0D0E0EECFCA30D1050B
:10099000A9F483E00E94B500892B81F483E00E94D2
:1009A000B500892B59F48AE090E00E94BA0264E60F
:1009B00070E080E090E00E946201F0CF2197C6CF06
:1009C0000115110509F436CF0E94FE01882309F4B0
:1009D00031CF0E9400002ECFEEE4F1E013821282AC
:1009E00088EE93E0A0E0B0E084839583A683B7838C
:1009F00080E191E09183808385EC90E09587848706
:100A000084EC90E09787868780EC90E0918B808BD8
:100A100081EC90E0938B828B82EC90E0958B848BC1
:100A200086EC90E0978B868B118E128E138E148E2F
:100A3000089597FB072E16F4009407D077FD09D090
:100A40000E942D0507FC05D03EF4909581959F4F9F
:100A50000895709561957F4F0895AA1BBB1B51E1C6
:100A600007C0AA1FBB1FA617B70710F0A61BB70B1E
:100A7000881F991F5A95A9F780959095BC01CD01C3
:100A80000895EE0FFF1F0590F491E02D0994F8945E
:100A9000FFCF1E00C0F9A4B0999282F880900000A8
:100AA000000034029401C1018102F201D001E4018D
:100AB00053657474696E67206D6F646520656E613F
:100AC000626C65642E0053657474696E67206D6F87
:100AD00064652064697361626C65642E000D0A00B0
:107E0000112484B714BE81FFF0D085E080938100F7
:107E100082E08093C00088E18093C10086E0809377
:107E2000C20080E18093C4008EE0C9D0259A86E02C
:107E300020E33CEF91E0309385002093840096BBD3
:107E4000B09BFECF1D9AA8958150A9F7CC24DD24C4
:107E500088248394B5E0AB2EA1E19A2EF3E0BF2EE7
:107E6000A2D0813461F49FD0082FAFD0023811F036
:107E7000013811F484E001C083E08DD089C08234E0
:107E800011F484E103C0853419F485E0A6D080C0E4
:107E9000853579F488D0E82EFF2485D0082F10E0AE
:107EA000102F00270E291F29000F111F8ED06801E7
:107EB0006FC0863521F484E090D080E0DECF843638
:107EC00009F040C070D06FD0082F6DD080E0C81688
:107ED00080E7D80618F4F601B7BEE895C0E0D1E017
:107EE00062D089930C17E1F7F0E0CF16F0E7DF06D8
:107EF00018F0F601B7BEE89568D007B600FCFDCFD4
:107F0000A601A0E0B1E02C9130E011968C91119780
:107F100090E0982F8827822B932B1296FA010C0160
:107F200087BEE89511244E5F5F4FF1E0A038BF0790
:107F300051F7F601A7BEE89507B600FCFDCF97BE46
:107F4000E89526C08437B1F42ED02DD0F82E2BD052
:107F50003CD0F601EF2C8F010F5F1F4F84911BD097
:107F6000EA94F801C1F70894C11CD11CFA94CF0C13
:107F7000D11C0EC0853739F428D08EE10CD085E9AC
:107F80000AD08FE07ACF813511F488E018D01DD067
:107F900080E101D065CF982F8091C00085FFFCCF94
:107FA0009093C60008958091C00087FFFCCF809118
:107FB000C00084FD01C0A8958091C6000895E0E648
:107FC000F0E098E1908380830895EDDF803219F02E
:107FD00088E0F5DFFFCF84E1DECF1F93182FE3DFCA
:107FE0001150E9F7F2DF1F91089580E0E8DFEE27F6
:047FF000FF270994CA
:027FFE00040479
:00000001FF
